{
  "contractName": "BasicToken",
  "abi": [
    {
      "constant": false,
      "inputs": [
        {
          "name": "_from",
          "type": "address"
        },
        {
          "name": "_to",
          "type": "address"
        },
        {
          "name": "_value",
          "type": "uint256"
        }
      ],
      "name": "transferFrom",
      "outputs": [
        {
          "name": "",
          "type": "bool"
        }
      ],
      "payable": false,
      "stateMutability": "nonpayable",
      "type": "function"
    },
    {
      "constant": true,
      "inputs": [
        {
          "name": "",
          "type": "address"
        }
      ],
      "name": "balances",
      "outputs": [
        {
          "name": "",
          "type": "uint256"
        }
      ],
      "payable": false,
      "stateMutability": "view",
      "type": "function"
    },
    {
      "constant": true,
      "inputs": [],
      "name": "owner",
      "outputs": [
        {
          "name": "",
          "type": "address"
        }
      ],
      "payable": false,
      "stateMutability": "view",
      "type": "function"
    },
    {
      "constant": false,
      "inputs": [
        {
          "name": "_to",
          "type": "address"
        },
        {
          "name": "_value",
          "type": "uint256"
        }
      ],
      "name": "transfer",
      "outputs": [
        {
          "name": "",
          "type": "bool"
        }
      ],
      "payable": false,
      "stateMutability": "nonpayable",
      "type": "function"
    },
    {
      "inputs": [
        {
          "name": "initialSupply",
          "type": "uint256"
        }
      ],
      "payable": false,
      "stateMutability": "nonpayable",
      "type": "constructor"
    }
  ],
  "bytecode": "0x6060604052341561000f57600080fd5b60405160208061062c83398101604052808051906020019091905050336000806101000a81548173ffffffffffffffffffffffffffffffffffffffff021916908373ffffffffffffffffffffffffffffffffffffffff16021790555080600160008060009054906101000a900473ffffffffffffffffffffffffffffffffffffffff1673ffffffffffffffffffffffffffffffffffffffff1673ffffffffffffffffffffffffffffffffffffffff168152602001908152602001600020819055505061054c806100e06000396000f300606060405260043610610062576000357c0100000000000000000000000000000000000000000000000000000000900463ffffffff16806323b872dd1461006757806327e235e3146100e05780638da5cb5b1461012d578063a9059cbb14610182575b600080fd5b341561007257600080fd5b6100c6600480803573ffffffffffffffffffffffffffffffffffffffff1690602001909190803573ffffffffffffffffffffffffffffffffffffffff169060200190919080359060200190919050506101dc565b604051808215151515815260200191505060405180910390f35b34156100eb57600080fd5b610117600480803573ffffffffffffffffffffffffffffffffffffffff16906020019091905050610360565b6040518082815260200191505060405180910390f35b341561013857600080fd5b610140610378565b604051808273ffffffffffffffffffffffffffffffffffffffff1673ffffffffffffffffffffffffffffffffffffffff16815260200191505060405180910390f35b341561018d57600080fd5b6101c2600480803573ffffffffffffffffffffffffffffffffffffffff1690602001909190803590602001909190505061039d565b604051808215151515815260200191505060405180910390f35b600081600160008673ffffffffffffffffffffffffffffffffffffffff1673ffffffffffffffffffffffffffffffffffffffff168152602001908152602001600020541015151561022c57600080fd5b600160008473ffffffffffffffffffffffffffffffffffffffff1673ffffffffffffffffffffffffffffffffffffffff1681526020019081526020016000205482600160008673ffffffffffffffffffffffffffffffffffffffff1673ffffffffffffffffffffffffffffffffffffffff1681526020019081526020016000205401101515156102bb57600080fd5b81600160008673ffffffffffffffffffffffffffffffffffffffff1673ffffffffffffffffffffffffffffffffffffffff1681526020019081526020016000206000828254039250508190555081600160008573ffffffffffffffffffffffffffffffffffffffff1673ffffffffffffffffffffffffffffffffffffffff16815260200190815260200160002060008282540192505081905550600190509392505050565b60016020528060005260406000206000915090505481565b6000809054906101000a900473ffffffffffffffffffffffffffffffffffffffff1681565b600081600160003373ffffffffffffffffffffffffffffffffffffffff1673ffffffffffffffffffffffffffffffffffffffff16815260200190815260200160002054101515156103ed57600080fd5b600160008473ffffffffffffffffffffffffffffffffffffffff1673ffffffffffffffffffffffffffffffffffffffff1681526020019081526020016000205482600160008673ffffffffffffffffffffffffffffffffffffffff1673ffffffffffffffffffffffffffffffffffffffff16815260200190815260200160002054011015151561047c57600080fd5b81600160003373ffffffffffffffffffffffffffffffffffffffff1673ffffffffffffffffffffffffffffffffffffffff1681526020019081526020016000206000828254039250508190555081600160008573ffffffffffffffffffffffffffffffffffffffff1673ffffffffffffffffffffffffffffffffffffffff1681526020019081526020016000206000828254019250508190555060019050929150505600a165627a7a72305820a139f5d2aae9e2eae7f286f53bde56543cbcea9e8e67a9bae54e6a093a6ec28b0029",
  "source": "pragma solidity ^0.4.18;\n\ncontract BasicToken {\n\n    /* Contract variables */\n    address public owner;\n    mapping (address => uint256) public balances;\n\n    /* Contract constructor */\n    function BasicToken(uint256 initialSupply) public {\n        owner = msg.sender;                                 // Set the creator as the owner\n        balances[owner] = initialSupply;               // Give the creator all initial tokens\n    }\n\n    /* Function to send coins to an address*/\n    function transfer(address _to, uint256 _value) public returns (bool) {\n        require(balances[msg.sender] >= _value);            // Check if the sender has enough\n        require(balances[_to] + _value >= balances[_to]);   // Check for overflows\n        balances[msg.sender] -= _value;                     // Subtract from the sender\n        balances[_to] += _value;                            // Add the same to the recipient\n\n        return true;\n    }\n\n    /* Function to send coins from an address to another */\n    function transferFrom(address _from, address _to, uint256 _value) public returns (bool) {\n        require(balances[_from] >= _value);                 // Check if the sender has enough\n        require(balances[_to] + _value >= balances[_to]);   // Check for overflows\n        balances[_from] -= _value;                          // Subtract from the sender\n        balances[_to] += _value;                            // Add the same to the recipient\n\n        return true;\n    }\n\n}\n",
  "sourcePath": "/home/davidherranz/Proyectos/Personal/Blockchain/Github/solidity-basics/contract-basic-token/contracts/BasicToken.sol",
  "compiler": {
    "name": "solc",
    "version": "0.4.18+commit.9cf6e910.Emscripten.clang"
  },
  "schemaVersion": "1.0.1",
  "updatedAt": "2018-01-31T11:06:03.027Z"
}