{
  "contractName": "Counter",
  "abi": [
    {
      "constant": false,
      "inputs": [],
      "name": "incrementCounter",
      "outputs": [],
      "payable": false,
      "stateMutability": "nonpayable",
      "type": "function"
    },
    {
      "constant": true,
      "inputs": [],
      "name": "getCount",
      "outputs": [
        {
          "name": "",
          "type": "int256"
        }
      ],
      "payable": false,
      "stateMutability": "view",
      "type": "function"
    },
    {
      "constant": false,
      "inputs": [],
      "name": "decrementCounter",
      "outputs": [],
      "payable": false,
      "stateMutability": "nonpayable",
      "type": "function"
    },
    {
      "inputs": [],
      "payable": false,
      "stateMutability": "nonpayable",
      "type": "constructor"
    }
  ],
  "bytecode": "0x6060604052341561000f57600080fd5b6000808190555060fb806100246000396000f3006060604052600436106053576000357c0100000000000000000000000000000000000000000000000000000000900463ffffffff1680635b34b966146058578063a87d942c14606a578063f5c5ad83146090575b600080fd5b3415606257600080fd5b606860a2565b005b3415607457600080fd5b607a60b4565b6040518082815260200191505060405180910390f35b3415609a57600080fd5b60a060bd565b005b60016000808282540192505081905550565b60008054905090565b600160008082825403925050819055505600a165627a7a723058200f74ea315d2b4b4b2d012cfb988259ace58dfcf59fb88872905ef6a5124b4ad10029",
  "source": "pragma solidity ^0.4.18;\n\ncontract Counter {\n\n    /* Contract variables */\n    int private count;\n\n    /* Contract constructor */\n    function Counter() public {\n        count = 0;\n    }\n\n    /* This function increases the value of the counter by 1 */\n    function incrementCounter() public {\n        count += 1;\n    }\n\n    /* This function decreases the value of the counter by 1 */\n    function decrementCounter() public {\n        count -= 1;\n    }\n\n    /* This function returns the counter's value */\n    function getCount() public view returns (int) {\n        return count;\n    }\n\n}",
  "sourcePath": "/home/davidherranz/Proyectos/Personal/Blockchain/Github/solidity-basics/contract-counter/contracts/Counter.sol",
  "compiler": {
    "name": "solc",
    "version": "0.4.18+commit.9cf6e910.Emscripten.clang"
  },
  "schemaVersion": "1.0.1",
  "updatedAt": "2018-01-30T08:44:48.255Z"
}