{
  "contractName": "Mortal",
  "abi": [
    {
      "constant": false,
      "inputs": [],
      "name": "kill",
      "outputs": [],
      "payable": false,
      "stateMutability": "nonpayable",
      "type": "function"
    },
    {
      "constant": true,
      "inputs": [],
      "name": "owner",
      "outputs": [
        {
          "name": "",
          "type": "address"
        }
      ],
      "payable": false,
      "stateMutability": "view",
      "type": "function"
    },
    {
      "inputs": [],
      "payable": false,
      "stateMutability": "nonpayable",
      "type": "constructor"
    }
  ],
  "bytecode": "0x6060604052341561000f57600080fd5b336000806101000a81548173ffffffffffffffffffffffffffffffffffffffff021916908373ffffffffffffffffffffffffffffffffffffffff16021790555061019d8061005e6000396000f30060606040526004361061004c576000357c0100000000000000000000000000000000000000000000000000000000900463ffffffff16806341c0e1b5146100515780638da5cb5b14610066575b600080fd5b341561005c57600080fd5b6100646100bb565b005b341561007157600080fd5b61007961014c565b604051808273ffffffffffffffffffffffffffffffffffffffff1673ffffffffffffffffffffffffffffffffffffffff16815260200191505060405180910390f35b6000809054906101000a900473ffffffffffffffffffffffffffffffffffffffff1673ffffffffffffffffffffffffffffffffffffffff163373ffffffffffffffffffffffffffffffffffffffff16141561014a576000809054906101000a900473ffffffffffffffffffffffffffffffffffffffff1673ffffffffffffffffffffffffffffffffffffffff16ff5b565b6000809054906101000a900473ffffffffffffffffffffffffffffffffffffffff16815600a165627a7a723058204462e1d36ef82f41166621f3216c5ef0329fb915cef12cb82d88f9f5691a98300029",
  "source": "pragma solidity ^0.4.18;\n\ncontract Mortal {\n\n    /* Contract variables */\n    address public owner;\n\n    /* This function is the constructor, executed at initialization\n     * due to contract creation. It sets the owner of the contract\n     */\n    function Mortal() public {\n        owner = msg.sender;\n    }\n\n    /* It recovers the funds of the contract */\n    function kill() public {\n        if (msg.sender == owner) {\n            selfdestruct(owner);\n        }\n    }\n\n}\n\ncontract Greeter is Mortal {\n\n    /* Contract variables */\n    string public greeting;\n    uint public endTime;\n\n    /* Contract constructor */\n    function Greeter(string _greeting) public {\n        greeting = _greeting;\n        endTime = 4 days;\n    }\n\n    /* onlyAfterDate modifier that requires that the time is a number of days in the future from now */\n    modifier onlyAfterDate() {\n        if (now <= endTime) {\n            revert();\n        } else {\n            _;\n        }\n    }\n\n    /* Main function of the contract */\n    function greet() public view returns (string) {\n        return greeting;\n    }\n\n    /* Function to test the use of a modifier */\n    function fnWithModifier() onlyAfterDate public view returns (bool success) {\n        return true;\n    }\n\n}\n",
  "sourcePath": "/home/davidherranz/Proyectos/Personal/Blockchain/Github/solidity-basics/contract-greeter/contracts/Greeter.sol",
  "compiler": {
    "name": "solc",
    "version": "0.4.18+commit.9cf6e910.Emscripten.clang"
  },
  "schemaVersion": "1.0.1",
  "updatedAt": "2018-02-02T10:57:11.508Z"
}